:020000040800F2
:1000000000500020A1230008AD210008B9210008FC
:10001000C9210008CF210008D521000800000000F8
:10002000000000000000000000000000DB210008CC
:10003000E721000800000000F3210008FF2100086C
:10004000E9230008E9230008E9230008E923000860
:10005000E9230008E9230008E9230008E923000850
:10006000E9230008E9230008E9230008E923000840
:10007000E9230008E9230008E9230008E923000830
:10008000E9230008E9230008E9230008E923000820
:10009000E9230008E9230008E9230008E923000810
:1000A000E9230008E9230008E9230008E923000800
:1000B000E9230008E9230008E9230008E9230008F0
:1000C000E9230008E9230008E9230008E9230008E0
:1000D000E9230008E92300080D220008E9230008AD
:1000E000E9230008E9230008E923000800000000D4
:1000F0000000000000000000000000000000000000
:0C01000000000000000000005FF808F1A3
:10010C0010B5054C237833B9044B13B10448AFF345
:10011C0000800123237010BD14000020000000009B
:10012C004424000808B5034B1BB103490348AFF343
:10013C00008008BD000000001800002044240008C6
:10014C0080B500AF084B1B68074A43F010031360DF
:10015C00032000F047F9002000F008F801F0EEFF52
:10016C000023184680BD00BF0020024080B582B03D
:10017C0000AF7860124B1A68124B1B7819464FF47B
:10018C007A73B3FBF1F3B2FBF3F3184600F05FF9AB
:10019C000346002B01D001230EE07B680F2B0AD8FD
:1001AC00002279684FF0FF3000F027F9064A7B688F
:1001BC001360002300E0012318460837BD4680BDBC
:1001CC0010000020040000200000002080B400AFCC
:1001DC00054B1B781A46054B1B681344034A1360E6
:1001EC0000BFBD4680BC70470400002030000020DA
:1001FC0080B400AF024B1B681846BD4680BC7047EC
:10020C003000002080B584B000AF7860FFF7F0FFBD
:10021C00B8607B68FB60FB68B3F1FF3F05D00A4B0D
:10022C001B781A46FB681344FB6000BFFFF7E0FF26
:10023C000246BB68D31AFA689A42F7D800BF00BFCF
:10024C001037BD4680BD00BF0400002080B485B0CF
:10025C0000AF78607B6803F00703FB600C4BDB6836
:10026C00BB60BA684FF6FF031340BB60FB681A0211
:10027C00BB68134343F0BF6343F40033BB60044AD1
:10028C00BB68D36000BF1437BD4680BC704700BF4D
:10029C0000ED00E080B400AF044BDB681B0A03F0F8
:1002AC0007031846BD4680BC704700BF00ED00E058
:1002BC0080B483B000AF0346FB7197F90730002B75
:1002CC000BDBFB7903F01F02064997F907305B093A
:1002DC00012000FA02F241F8232000BF0C37BD4682
:1002EC0080BC704700E100E080B483B000AF0346EF
:1002FC003960FB7197F90730002B0ADB3B68DAB2E7
:10030C000C4997F907301201D2B20B4483F8002341
:10031C000AE03B68DAB20849FB7903F00F03043BAF
:10032C001201D2B20B441A7600BF0C37BD4680BC0A
:10033C00704700BF00E100E000ED00E080B489B040
:10034C0000AFF860B9607A60FB6803F00703FB61EB
:10035C00FB69C3F10703042B28BF0423BB61FB69B2
:10036C000433062B02D9FB69033B00E000237B61BD
:10037C004FF0FF32BB6902FA03F3DA43BB681A4051
:10038C007B699A404FF0FF317B6901FA03F3D94343
:10039C007B680B40134318462437BD4680BC70471E
:1003AC0080B582B000AF78607B68013BB3F1807F91
:1003BC0001D301230FE00A4A7B68013B53600F21F4
:1003CC004FF0FF30FFF790FF054B00229A60044B73
:1003DC0007221A60002318460837BD4680BD00BFAF
:1003EC0010E000E080B582B000AF78607868FFF76D
:1003FC002DFF00BF0837BD4680BD80B586B000AF6D
:10040C000346B9607A60FB7300237B61FFF742FF00
:10041C0078617A68B9687869FFF790FF024697F9B6
:10042C000F3011461846FFF75FFF00BF1837BD4667
:10043C0080BD80B582B000AF0346FB7197F90730E1
:10044C001846FFF735FF00BF0837BD4680BD80B5A5
:10045C0082B000AF78607868FFF7A2FF03461846B9
:10046C000837BD4680BD000080B584B000AF786011
:10047C000023FB737B6893F82130022B05D07B683B
:10048C0004229A630123FB7351E07B681B681A6892
:10049C007B681B6822F00E021A607B681B681A6866
:1004AC007B681B6822F001021A607B681B68224A79
:1004BC00934229D07B681B68204A934222D07B68E8
:1004CC001B681F4A93421AD07B681B681D4A9342D3
:1004DC0012D07B681B681C4A93420AD07B681B684D
:1004EC001A4A934202D14FF480130EE04FF08073FE
:1004FC000BE04FF4803308E04FF4805305E04FF4E9
:10050C00807302E0102300E00123114A53607B68E2
:10051C00012283F821207B68002283F820207B684D
:10052C005B6B002B03D07B685B6B78689847FB7B1D
:10053C0018461037BD4680BD080002401C00024022
:10054C003000024044000240580002406C0002405F
:10055C000000024080B48BB000AF7860396000239B
:10056C007B6200233B6269E101227B6A02FA03F39E
:10057C00FB613B681B68FA691340BB61BA69FB6994
:10058C009A4240F058813B685B689A4A93425ED02D
:10059C00984A934275D8984A934258D0964A9342B7
:1005AC006FD8964A934252D0944A934269D8944A4F
:1005BC0093424CD0924A934263D8924A934246D08B
:1005CC00904A93425DD8122B2AD8122B59D801A2EB
:1005DC0052F823F05B0600083506000847060008B1
:1005EC00890600088F0600088F0600088F06000891
:1005FC008F0600088F0600088F0600088F0600087B
:10060C008F0600088F0600088F0600088F0600086A
:10061C008F0600088F0600083D06000851060008EA
:10062C00794A934213D02CE03B68DB683B6229E0AB
:10063C003B68DB6804333B6224E03B68DB680833CF
:10064C003B621FE03B68DB680C333B621AE03B68A3
:10065C009B68002B02D104233B6213E03B689B6830
:10066C00012B05D108233B627B68FA691A6109E00A
:10067C0008233B627B68FA695A6103E000233B6202
:10068C0000E000BFBB69FF2B01D87B6801E07B68F1
:10069C0004337B61BB69FF2B02D87B6A9B0002E0B1
:1006AC007B6A083B9B003B617B691A680F213B69A5
:1006BC0001FA03F3DB431A40396A3B6901FA03F38D
:1006CC001A437B691A603B685B6803F08053002B0C
:1006DC0000F0B1804D4B9B694C4A43F00103936190
:1006EC004A4B9B6903F00103BB60BB68484A7B6AB9
:1006FC009B08023352F82330FB607B6A03F0030340
:10070C009B000F2202FA03F3DB43FA681340FB60F1
:10071C007B68404A934213D07B683F4A93420DD08A
:10072C007B683E4A934207D07B683D4A934201D195
:10073C00032306E0042304E0022302E0012300E08B
:10074C0000237A6A02F0030292009340FA68134382
:10075C00FB602F497B6A9B080233FA6841F823201F
:10076C003B685B6803F48033002B06D02D4B1A6872
:10077C002C49BB6913430B6006E02A4B1A68BB6912
:10078C00DB43284913400B603B685B6803F4003380
:10079C00002B06D0234B5A682249BB6913434B608C
:1007AC0006E0204B5A68BB69DB431E4913404B6083
:1007BC003B685B6803F48013002B06D0194B9A68D6
:1007CC001849BB6913438B6006E0164B9A68BB69EA
:1007DC00DB43144913408B603B685B6803F40013E4
:1007EC00002B21D00F4BDA680E49BB691343CB6049
:1007FC0021E000BF00003210000031100000221078
:10080C000000211000001210000011100010024016
:10081C000000014000080140000C014000100140A4
:10082C0000140140000401400B4BDA68BB69DB4348
:10083C0009491340CB607B6A01337B623B681A68C1
:10084C007B6A22FA03F3002B7FF48EAE00BF00BF4D
:10085C002C37BD4680BC70470004014080B483B087
:10086C0000AF78600B467B8013467B707B78002B47
:10087C0003D07A887B681A6103E07B881A047B6852
:10088C001A6100BF0C37BD4680BC704780B586B07E
:10089C0000AF78607B68002B01D101236CE27B6890
:1008AC001B6803F00103002B00F08780924B5B6800
:1008BC0003F00C03042B0CD08F4B5B6803F00C0380
:1008CC00082B12D18C4B5B6803F48033B3F5803F5B
:1008DC000BD1894B1B6803F40033002B6CD07B6865
:1008EC005B68002B68D1012346E27B685B68B3F53B
:1008FC00803F06D1804B1B687F4A43F480331360E2
:10090C002EE07B685B68002B0CD17B4B1B687A4A12
:10091C0023F480331360784B1B68774A23F48023CD
:10092C0013601DE07B685B68B3F5A02F0CD1724B94
:10093C001B68714A43F4802313606F4B1B686E4A2B
:10094C0043F4803313600BE06B4B1B686A4A23F44F
:10095C0080331360684B1B68674A23F48023136051
:10096C007B685B68002B13D0FFF742FC386108E012
:10097C00FFF73EFC02463B69D31A642B01D90323D3
:10098C00FAE15D4B1B6803F40033002BF0D014E04C
:10099C00FFF72EFC386108E0FFF72AFC02463B69A2
:1009AC00D31A642B01D90323E6E1534B1B6803F4E0
:1009BC000033002BF0D100E000BF7B681B6803F014
:1009CC000203002B63D04C4B5B6803F00C03002B31
:1009DC000BD0494B5B6803F00C03082B1CD1464B26
:1009EC005B6803F48033002B16D1434B1B6803F078
:1009FC000203002B05D07B681B69012B01D001235E
:100A0C00BAE13D4B1B6823F0F8027B685B69DB00A5
:100A1C00394913430B603AE07B681B69002B20D0EB
:100A2C00364B01221A60FFF7E3FB386108E0FFF751
:100A3C00DFFB02463B69D31A022B01D903239BE14E
:100A4C002D4B1B6803F00203002BF0D02A4B1B68C4
:100A5C0023F0F8027B685B69DB00274913430B60CA
:100A6C0015E0264B00221A60FFF7C2FB386108E044
:100A7C00FFF7BEFB02463B69D31A022B01D90323B5
:100A8C007AE11D4B1B6803F00203002BF0D17B684D
:100A9C001B6803F00803002B3AD07B689B69002B82
:100AAC0019D0174B01221A60FFF7A2FB386108E03E
:100ABC00FFF79EFB02463B69D31A022B01D9032395
:100ACC005AE10D4B5B6A03F00203002BF0D00120BE
:100ADC0000F0D8FA1CE00A4B00221A60FFF788FBE2
:100AEC0038610FE0FFF784FB02463B69D31A022BF7
:100AFC0008D9032340E100BF00100240000042422D
:100B0C00800442429E4B5B6A03F00203002BE9D146
:100B1C007B681B6803F00403002B00F0A680002305
:100B2C00FB75974BDB6903F08053002B0DD1944B75
:100B3C00DB69934A43F08053D361914BDB6903F03B
:100B4C008053BB60BB680123FB758E4B1B6803F4A1
:100B5C008073002B18D18B4B1B688A4A43F480732B
:100B6C001360FFF745FB386108E0FFF741FB0246D5
:100B7C003B69D31A642B01D90323FDE0814B1B681D
:100B8C0003F48073002BF0D07B68DB68012B06D15B
:100B9C007B4B1B6A7A4A43F0010313622DE07B689E
:100BAC00DB68002B0CD1764B1B6A754A23F00103D2
:100BBC001362734B1B6A724A23F0040313621CE02A
:100BCC007B68DB68052B0CD16D4B1B6A6C4A43F0C0
:100BDC00040313626A4B1B6A694A43F001031362F4
:100BEC000BE0674B1B6A664A23F001031362644BEC
:100BFC001B6A634A23F0040313627B68DB68002BD7
:100C0C0015D0FFF7F5FA38610AE0FFF7F1FA024662
:100C1C003B69D31A41F28832934201D90323ABE0EA
:100C2C00574B1B6A03F00203002BEED014E0FFF7C6
:100C3C00DFFA38610AE0FFF7DBFA02463B69D31AA8
:100C4C0041F28832934201D9032395E04C4B1B6A45
:100C5C0003F00203002BEED1FB7D012B05D1484B99
:100C6C00DB69474A23F08053D3617B68DB69002B37
:100C7C0000F08180424B5B6803F00C03082B61D0C1
:100C8C007B68DB69022B46D13F4B00221A60FFF7D1
:100C9C00AFFA386108E0FFF7ABFA02463B69D31AAA
:100CAC00022B01D9032367E0354B1B6803F000735B
:100CBC00002BF0D17B681B6AB3F5803F08D1304B19
:100CCC005B6823F400327B689B682D4913434B60AF
:100CDC002B4B5B6823F474127B68196A7B685B6A24
:100CEC000B43274913434B60274B01221A60FFF734
:100CFC007FFA386108E0FFF77BFA02463B69D31AAA
:100D0C00022B01D9032337E01D4B1B6803F0007342
:100D1C00002BF0D02FE01C4B00221A60FFF768FA72
:100D2C00386108E0FFF764FA02463B69D31A022BDC
:100D3C0001D9032320E0124B1B6803F00073002B36
:100D4C00F0D118E07B68DB69012B01D1012313E0A2
:100D5C000B4B5B68FB60FB6803F480327B681B6A9F
:100D6C009A4206D1FB6803F470127B685B6A9A4264
:100D7C0001D0012300E0002318461837BD4680BD82
:100D8C0000100240007000406000424280B584B008
:100D9C0000AF786039607B68002B01D10123D0E073
:100DAC006A4B1B6803F007033A689A4210D9674BE9
:100DBC001B6823F0070265493B6813430B60634BC8
:100DCC001B6803F007033A689A4201D00123B8E08C
:100DDC007B681B6803F00203002B20D07B681B6828
:100DEC0003F00403002B05D0594B5B68584A43F4BD
:100DFC00E06353607B681B6803F00803002B05D08D
:100E0C00534B5B68524A43F460535360504B5B68DE
:100E1C0023F0F0027B689B684D4913434B607B6861
:100E2C001B6803F00103002B40D07B685B68012B2F
:100E3C0007D1474B1B6803F40033002B15D101235A
:100E4C007FE07B685B68022B07D1414B1B6803F08A
:100E5C000073002B09D1012373E03D4B1B6803F099
:100E6C000203002B01D101236BE0394B5B6823F0AB
:100E7C0003027B685B68364913434B60FFF7B8F994
:100E8C00F8600AE0FFF7B4F90246FB68D31A41F2A6
:100E9C008832934201D9032353E02D4B5B6803F056
:100EAC000C027B685B689B009A42EBD1274B1B685A
:100EBC0003F007033A689A4210D2244B1B6823F0C4
:100ECC00070222493B6813430B60204B1B6803F05D
:100EDC0007033A689A4201D0012332E07B681B6811
:100EEC0003F00403002B08D0194B5B6823F4E06279
:100EFC007B68DB68164913434B607B681B6803F007
:100F0C000803002B09D0124B5B6823F460527B68FA
:100F1C001B69DB000E4913434B6000F021F80246BD
:100F2C000B4B5B681B0903F00F030A49CB5C22FADD
:100F3C0003F3094A1360094B1B681846FFF716F9AF
:100F4C00002318461037BD4680BD00BF002002406C
:100F5C00001002406C24000810000020000000204B
:100F6C0090B48AB000AF2A4B3C1D0FCB84E80F0025
:100F7C0040F201233B800023FB610023BB61002373
:100F8C007B6200237B6100233B62224B5B68FB612D
:100F9C00FB6903F00C03042B02D0082B03D02DE0CB
:100FAC001D4B3B622DE0FB699B0C03F00F0307F11B
:100FBC002802134413F8243C7B61FB6903F480334F
:100FCC00002B13D0134B5B685B0C03F0010307F190
:100FDC002802134413F8283CBB617B690E4A02FBC0
:100FEC0003F2BB69B2FBF3F37B6204E07B690B4A4F
:100FFC0002FB03F37B627B6A3B6202E0064B3B62C3
:10100C0000BF3B6A18462837BD4690BC704700BFEE
:10101C005C2400080010024000127A0000093D0018
:10102C0080B400AF024B1B681846BD4680BC7047AD
:10103C001000002080B500AFFFF7F2FF0246054B11
:10104C005B681B0A03F007030349CB5C22FA03F32A
:10105C00184680BD001002407C24000880B500AF0B
:10106C00FFF7DEFF0246054B5B68DB0A03F0070364
:10107C000349CB5C22FA03F3184680BD00100240F2
:10108C007C24000880B485B000AF78600A4B1B68E4
:10109C000A4AA2FB03235B0A7A6802FB03F3FB6098
:1010AC0000BFFB685A1EFA60002BF9D100BF00BFCD
:1010BC001437BD4680BC704710000020D34D621021
:1010CC0080B582B000AF78607B68002B01D1012322
:1010DC003FE07B6893F83930DBB2002B06D17B689C
:1010EC00002283F83820786801F0F4F87B68242219
:1010FC0083F839207B681B68DA687B681B6822F4EC
:10110C000052DA60786800F0DDFB7B681B681A69B6
:10111C007B681B6822F490421A617B681B685A69D1
:10112C007B681B6822F02A025A617B681B68DA68AC
:10113C007B681B6842F40052DA607B680022DA6339
:10114C007B68202283F839207B68202283F83A20A0
:10115C00002318460837BD4680BD80B588B002AF65
:10116C00F860B9603B601346FB8000237B61FB6831
:10117C0093F83930DBB2202B40F08380BB68002B16
:10118C0002D0FB88002B01D101237BE0FB6893F894
:10119C003830012B01D1022374E0FB68012283F863
:1011AC003820FB680022DA63FB68212283F839209F
:1011BC00FFF71EF87861FB68FA889A84FB68FA8856
:1011CC00DA8442E0FB68DB8C9BB2013B9AB2FB6891
:1011DC00DA84FB689B68B3F5805F22D13B6800938F
:1011EC007B6900228021F86800F002FA0346002B8C
:1011FC0001D0032346E0BB683B613B691B881A4660
:10120C00FB681B68C2F308025A60FB681B69002B61
:10121C0003D1BB680233BB6017E0BB680133BB6012
:10122C0013E03B6800937B6900228021F86800F092
:10123C00DFF90346002B01D0032323E0BB685A1CC3
:10124C00BA601A78FB681B685A60FB68DB8C9BB22F
:10125C00002BB7D13B6800937B6900224021F868D2
:10126C0000F0C6F90346002B01D003230AE0FB680B
:10127C00202283F83920FB68002283F838200023D1
:10128C0000E0022318461837BD4680BD80B588B0F3
:10129C0002AFF860B9603B601346FB8000237B61B2
:1012AC00FB6893F83A30DBB2202B40F09080BB689F
:1012BC00002B02D0FB88002B01D1012388E0FB68B6
:1012CC0093F83830012B01D1022381E0FB68012215
:1012DC0083F83820FB680022DA63FB68222283F84B
:1012EC003A20FEF785FF7861FB68FA889A85FB68DF
:1012FC00FA88DA855CE0FB68DB8D9BB2013B9AB225
:10130C00FB68DA85FB689B68B3F5805F2BD13B6883
:10131C0000937B6900222021F86800F069F90346EC
:10132C00002B01D0032353E0BB683B61FB681B69B6
:10133C00002B0CD1FB681B685B689BB2C3F30803E2
:10134C009AB23B691A80BB680233BB6030E0FB6821
:10135C001B685B689BB2DBB29AB23B691A80BB68B4
:10136C000133BB6024E03B6800937B6900222021A1
:10137C00F86800F03DF90346002B01D0032327E069
:10138C00FB681B69002B08D1FB681B685968BB689C
:10139C005A1CBA60CAB21A700AE0FB681B685B6818
:1013AC00DAB2BB68591CB96002F07F02D2B21A7073
:1013BC00FB68DB8D9BB2002B9DD1FB68202283F850
:1013CC003A20FB68002283F83820002300E0022337
:1013DC0018461837BD4680BD80B588B000AF786020
:1013EC007B681B681B68FB617B681B68DB68BB61E7
:1013FC007B681B685B697B6100233B610023FB609E
:10140C00FB6903F00F033B613B69002B0DD1FB69BA
:10141C0003F02003002B08D0BB6903F02003002B42
:10142C0003D0786800F0CCF9CBE03B69002B00F0DE
:10143C00AB807B6903F00103002B05D1BB6903F47E
:10144C009073002B00F0A080FB6903F00103002BCC
:10145C000AD0BB6903F48073002B05D07B68DB6B6F
:10146C0043F001027B68DA63FB6903F00403002B91
:10147C000AD07B6903F00103002B05D07B68DB6B82
:10148C0043F002027B68DA63FB6903F00203002B72
:10149C000AD07B6903F00103002B05D07B68DB6B62
:1014AC0043F004027B68DA63FB6903F00803002B4A
:1014BC000AD07B6903F00103002B05D07B68DB6B42
:1014CC0043F008027B68DA637B68DB6B002B77D018
:1014DC00FB6903F02003002B07D0BB6903F020034A
:1014EC00002B02D0786800F06BF97B681B685B6995
:1014FC0003F04003002B14BF01230023DBB2FB607D
:10150C007B68DB6B03F00803002B02D1FB68002B1C
:10151C0031D0786800F0B6F87B681B685B6903F023
:10152C004003002B23D07B681B685A697B681B68BF
:10153C0022F040025A617B685B6B002B13D07B68F6
:10154C005B6B214A5A637B685B6B1846FEF78CFF1A
:10155C000346002B16D07B685B6B5B6B7A68526B17
:10156C00104698470EE0786800F006FF0AE07868AD
:10157C0000F002FF06E0786800F0FEFE7B680022B7
:10158C00DA631DE000BF1BE0FB6903F08003002B56
:10159C0008D0BB6903F08003002B03D0786800F0FF
:1015AC00A2F80EE0FB6903F04003002B09D0BB69E5
:1015BC0003F04003002B04D0786800F0E9F800E059
:1015CC0000BF2037BD4680BDCB16000880B483B069
:1015DC0000AF786000BF0C37BD4680BC704780B44C
:1015EC0083B000AF786000BF0C37BD4680BC70473D
:1015FC0080B584B000AFF860B9603B601346FB71F6
:10160C002CE0BB69B3F1FF3F28D0BB69002B07D09E
:10161C00FEF7EEFD02463B68D31ABA699A421DD218
:10162C00FB681B68DA68FB681B6822F4D072DA600E
:10163C00FB681B685A69FB681B6822F001025A613F
:10164C00FB68202283F83920FB68202283F83A209B
:10165C00FB68002283F8382003230FE0FB681B682B
:10166C001A68BB681340BA689A420CBF0123002366
:10167C00DBB21A46FB799A42C3D0002318461037C6
:10168C00BD4680BD80B483B000AF78607B681B68BA
:10169C00DA687B681B6822F49072DA607B681B68DE
:1016AC005A697B681B6822F001025A617B68202210
:1016BC0083F83A2000BF0C37BD4680BC704780B51C
:1016CC0084B000AF78607B685B6AFB60FB680022CB
:1016DC00DA85FB680022DA84F86800F04DFE00BF62
:1016EC001037BD4680BD80B485B000AF78607B6894
:1016FC0093F83930DBB2212B44D17B689B68B3F56E
:10170C00805F1AD17B681B6AFB60FB681B881A46DA
:10171C007B681B68C2F308025A607B681B69002B4C
:10172C0005D17B681B6A9A1C7B681A620EE07B6889
:10173C001B6A5A1C7B681A6208E07B681B6A591C7E
:10174C007A6811621A787B681B685A607B68DB8C3C
:10175C009BB2013B9BB27A681946D184002B0FD106
:10176C007B681B68DA687B681B6822F08002DA6091
:10177C007B681B68DA687B681B6842F04002DA60A1
:10178C00002300E0022318461437BD4680BC704786
:10179C0080B582B000AF78607B681B68DA687B68C4
:1017AC001B6822F04002DA607B68202283F8392023
:1017BC007868FFF70BFF002318460837BD4680BD3D
:1017CC0080B584B000AF78607B6893F83A30DBB2B8
:1017DC00222B71D17B689B68B3F5805F23D17B682A
:1017EC009B6AFB607B681B69002B0ED17B681B68B6
:1017FC005B689BB2C3F308039AB2FB681A807B68E0
:10180C009B6A9A1C7B689A6229E07B681B685B6800
:10181C009BB2DBB29AB2FB681A807B689B6A5A1C3B
:10182C007B689A621BE07B681B69002B0AD17B6882
:10183C001B6858687B689B6A591C7A689162C2B2B3
:10184C001A700CE07B681B685B68DAB27B689B6A79
:10185C00581C7968886202F07F02D2B21A707B68D9
:10186C00DB8D9BB2013B9BB27A681946D185002B6C
:10187C0020D17B681B68DA687B681B6822F0200229
:10188C00DA607B681B68DA687B681B6822F48072FC
:10189C00DA607B681B685A697B681B6822F001025E
:1018AC005A617B68202283F83A207868FFF797FE0C
:1018BC00002302E0002300E0022318461037BD4647
:1018CC0080BD000080B584B000AF78607B681B6879
:1018DC001B6923F440517B68DA687B681B680A43F8
:1018EC001A617B689A687B681B691A437B685B6921
:1018FC001343FB607B681B68DB6823F4B05323F055
:10190C000C037A681268F9680B43D3607B681B6818
:10191C005B6923F440717B689A697B681B680A4396
:10192C005A617B681B68524A93424ED1FFF796FB73
:10193C00B860BA6813469B0013449A001A447B683B
:10194C005B689B00B2FBF3F34A4AA2FB03235B09DF
:10195C001901BA6813469B0013449A001A447B6819
:10196C005B689B00B2FBF3F2424BA3FB02035B09E7
:10197C00642000FB03F3D31A1B0132333D4AA2FB54
:10198C0003235B0903F0F0031944BA6813469B0068
:10199C0013449A001A447B685B689B00B2FBF3F219
:1019AC00344BA3FB02035B09642000FB03F3D31A43
:1019BC001B0132332F4AA2FB03235B0903F00F02F6
:1019CC007B681B680A449A604DE0FFF733FBB860F4
:1019DC00BA6813469B0013449A001A447B685B68F0
:1019EC009B00B2FBF3F3234AA2FB03235B0919010F
:1019FC00BA6813469B0013449A001A447B685B68D0
:101A0C009B00B2FBF3F21B4BA3FB02035B096420AC
:101A1C0000FB03F3D31A1B013233164AA2FB032338
:101A2C005B0903F0F0031944BA6813469B00134496
:101A3C009A001A447B685B689B00B2FBF3F20D4B77
:101A4C00A3FB02035B09642000FB03F3D31A1B0105
:101A5C003233084AA2FB03235B0903F00F027B68B5
:101A6C001B680A449A6000BF1037BD4680BD00BF9A
:101A7C00003801401F85EB5180B586B000AF474B55
:101A8C001B78002B2DD0FD2B7BD1454B1B78DBB26B
:101A9C00062B78D9414B5B781A46414B1B78DBB24D
:101AAC00063B9A426FD13E4B1B78DBB2063BFB7573
:101ABC003C4B3B613A4B1B78DBB2013B374AD35C66
:101ACC009AB2374B1B78DBB2023B3449CB5C9BB2EE
:101ADC001B029BB21344FB8100BFFB89002B1FD060
:101AEC0058E02F4B1B78DBB2042B4ED92C4B1B78B8
:101AFC00DBB2043BFB752C4B3B61294B1B78DBB2F7
:101B0C00013B264AD35C9AB2254B1B78DBB2023BD5
:101B1C002249CB5C9BB21B029BB21344FB8121E09C
:101B2C003B691B787B73FB7D013B3B733B6901334A
:101B3C00BB607B7B002B14D13B7B022B27D9BB6872
:101B4C001A781A4B1A70BB685A78194B1A70BB6802
:101B5C009A78184B1A7032220321322000F0D2F8F6
:101B6C0000E000BF3B691B78FB71FB7D013BBB7147
:101B7C003B6901333B60FB79012B0AD100F0F0F992
:101B8C0008E000BF06E000BF04E000BF02E000BFB9
:101B9C0000E000BF1837BD4680BD00BF60010020CB
:101BAC008C02002064010020620100200C00002047
:101BBC000D0000208F02002080B586B000AF3B4B9B
:101BCC001B681B6803F02003202B3CD1374B1B6890
:101BDC005B68FB75364B1B78DBB25A1CD1B2344AAE
:101BEC0011701946334AFB7D5354334B1B78DBB2CF
:101BFC00022B13D0022B54DC002B02D0012B04D06F
:101C0C004FE02D4B01221A704BE02B4B02221A7025
:101C1C00FB7D0233DAB2294B1A7042E0274B1B785A
:101C2C00DBB2013BDAB2254B1A70244B1B78DBB2CA
:101C3C00002B35D1FFF720FF1D4B00221A701E4BD5
:101C4C0000221A702CE000233B61184B1B681B68A8
:101C5C003B61164B1B685B683B613B690023FB6077
:101C6C00124B1B681B68FB60104B1B685B68FB60AE
:101C7C00FB680023BB600D4B1B681B68BB600B4BE8
:101C8C001B685B68BB60BB6800237B60074B1B68F1
:101C9C001B687B60054B1B685B687B607B6800E0A6
:101CAC0000BF00BF1837BD4680BD00BF90020020AA
:101CBC008C020020600100208E0200208D0200208A
:101CCC0080B485B000AF0346FB710023FB81002379
:101CDC007B7309E07B7B0A4AD35C9AB2FB89134481
:101CEC00FB817B7B01337B737A7BFB799A42F1D34B
:101CFC00FB89DBB218461437BD4680BC704700BF69
:101D0C003400002080B582B000AF0346FB800B4648
:101D1C007B7113467B80114B1B78002B1AD113E07F
:101D2C0000224FF400510E48FEF798FDFB88184630
:101D3C00FEF768FA01224FF400510948FEF78EFDB8
:101D4C007B881846FEF75EFA7B795A1E7A71002B57
:101D5C00E6D100E000BF0837BD4680BD8F020020F1
:101D6C000010014080B58AB000AF694BFC221A709C
:101D7C00674B06225A70664B0C229A70644B4422B5
:101D8C00DA70634B54221A71614B4B225A71604BBF
:101D9C0052229A715E4B4622DA710820FFF790FFAF
:101DAC0003461A465A4B1A7200237B620023FB61CE
:101DBC00584B1B681B68FB61564B1B685B68FB61CF
:101DCC00FB690023BB61534B1B681B68BB61514B08
:101DDC001B685B68BB61BB6900237B614D4B1B6857
:101DEC001B687B614B4B1B685B687B617B690023C9
:101DFC003B61484B1B681B683B61464B1B685B682F
:101E0C003B613B694FF4FA73092241494148FFF7A2
:101E1C00A4F94FF4FA7308223F493E48FFF736FA0B
:101E2C000346002B36D04FF47A70FEF7EBF97B6A41
:101E3C0001337B627B6A052BB8DD00237B6200BF1C
:101E4C00142205211420FFF75DFF6420FEF7DAF958
:101E5C00002387F8233014E0002201212F48FEF7DD
:101E6C00FDFC7820FEF7CEF9012201212B48FEF76C
:101E7C00F5FCC820FEF7C6F997F82330013387F834
:101E8C00233097F82330022BE6D940F6B830FEF712
:101E9C00B9F98BE700BF322202213220FFF732FF63
:101EAC000023FB601B4B1B681B68FB60194B1B68FA
:101EBC005B68FB60FB680023BB60164B1B681B68F0
:101ECC00BB60144B1B685B68BB60BB6800237B600A
:101EDC00104B1B681B687B600E4B1B685B687B6040
:101EEC007B6800233B600B4B1B681B683B60094BFA
:101EFC001B685B683B603B68064B1B68DA68054BEC
:101F0C001B6842F02002DA6000BF2837BD4680BD56
:101F1C00340000209002002060010020000C0140E1
:101F2C0080B582B000AF0346FB710B4B00221A70D8
:101F3C00094AFB795370FB799BB202339AB24FF486
:101F4C00FA7305490548FFF708F9C820FEF75AF956
:101F5C0000BF0837BD4680BD340000209002002031
:101F6C0080B500AF094B1B6801221A70074B1B6828
:101F7C00013300221A800320FFF7D2FF1422032121
:101F8C001420FFF7BFFE00BF80BD00BF080000207B
:101F9C0080B588B000AF07F1100300221A605A60B8
:101FAC009A60DA602D4B9B692C4A43F010039361C5
:101FBC002A4B9B6903F01003FB60FB68274B9B6962
:101FCC00264A43F020039361244B9B6903F02003C2
:101FDC00BB60BB68214B9B69204A43F004039361AF
:101FEC001E4B9B6903F004037B607B681B4B9B6956
:101FFC001A4A43F008039361184B9B6903F00803DA
:10200C003B603B6800224FF400511548FEF726FC5C
:10201C00002201211348FEF721FC4FF400533B61D1
:10202C0001237B610023BB610223FB6107F11003D9
:10203C0019460B48FEF78EFA01233B6101237B61A5
:10204C000023BB610223FB6107F11003194605480D
:10205C00FEF780FA00BF2037BD4680BD001002405D
:10206C0000100140000C014080B500AFFEF768F88D
:10207C0000F018F8FFF78CFF00F002F901220121A3
:10208C000648FEF7EBFB01224FF400510448FEF723
:10209C00E5FBFFF767FEFFF763FFFEE7000C01406F
:1020AC000010014080B590B000AF07F11803282252
:1020BC000021184600F0B8F93B1D00221A605A6046
:1020CC009A60DA601A610123BB614FF48033FB61C3
:1020DC0000233B620123BB6202237B634FF48033FA
:1020EC00BB634FF4E013FB6307F118031846FEF7CC
:1020FC00CDFB0346002B01D000F019F80F237B60B9
:10210C000223BB600023FB604FF480633B61002320
:10211C007B613B1D02211846FEF738FE0346002B5F
:10212C0001D000F004F800BF4037BD4680BD80B43C
:10213C0000AF00BFBD4680BC7047000080B485B0C6
:10214C0000AF154B9B69144A43F001039361124B8A
:10215C009B6903F00103BB60BB680F4BDB690E4A44
:10216C0043F08053D3610C4BDB6903F080537B60ED
:10217C007B680A4B5B68FB60FB6823F0E063FB60E9
:10218C00FB6843F00073FB60044AFB68536000BFBC
:10219C001437BD4680BC704700100240000001405F
:1021AC0080B400AF00BFBD4680BC704780B500AFA7
:1021BC00322205213220FFF7A5FDF9E780B400AFEC
:1021CC00FEE780B400AFFEE780B400AFFEE780B45A
:1021DC0000AF00BFBD4680BC704780B400AF00BFED
:1021EC00BD4680BC704780B400AF00BFBD4680BC0C
:1021FC00704780B500AFFDF7E9FF00BF80BD000060
:10220C0080B500AF0348FFF7E7F8FFF7D5FC00BF38
:10221C0080BD00BF9002002080B400AF154B1B683E
:10222C00144A43F001031360124B5A681149124BC4
:10223C0013404B600F4B1B680E4A23F0847323F43E
:10224C00803313600B4B1B680A4A23F48023136002
:10225C00084B5B68074A23F4FE035360054B4FF4AD
:10226C001F029A60054B4FF000629A6000BFBD469A
:10227C0080BC7047001002400000FFF800ED00E049
:10228C0080B500AF114B124A1A60104B4FF4164236
:10229C005A600E4B00229A600C4B0022DA600B4BFA
:1022AC0000221A61094B0C225A61084B00229A61D8
:1022BC00064B0022DA610548FEF702FF0346002BAD
:1022CC0001D0FFF734FF00BF80BD00BF900200209B
:1022DC000044004080B588B000AF786007F110036F
:1022EC0000221A605A609A60DA607B681B681F4A89
:1022FC00934237D11E4BDB691D4A43F40033D36143
:10230C001B4BDB6903F40033FB60FB68184B9B69C8
:10231C00174A43F004039361154B9B6903F00403C4
:10232C00BB60BB6804233B6102237B610323FB611D
:10233C0007F1100319460F48FEF70CF908233B610F
:10234C0000237B610023BB6107F110031946094888
:10235C00FEF700F9002201212620FEF74EF8262078
:10236C00FEF767F800BF2037BD4680BD0044004033
:10237C00001002400008014080B582B000AF7860C8
:10238C00322205213220FFF7BDFC00BF0837BD46C5
:10239C0080BD0000002103E00B4B5B58435004311F
:1023AC000A480B4B42189A42F6D30A4A02E0002321
:1023BC0042F8043B084B9A42F9D3FFF72DFF00F08B
:1023CC000FF8FFF751FE70478C2400080000002026
:1023DC001400002014000020D0020020FEE70000B2
:1023EC0070B500260C4D0D4C641BA410A64209D1EF
:1023FC0000F022F800260A4D0A4C641BA410A642D9
:10240C0005D170BD55F8043B98470136EEE755F8F9
:10241C00043B98470136F2E7842400088424000822
:10242C00842400088824000803460244934200D107
:10243C00704703F8011BF9E7F8B500BFF8BC08BCFE
:10244C009E467047F8B500BFF8BC08BC9E46704766
:10245C0002030405060708090A0B0C0D0E0F1010D9
:10246C000000000000000000010203040607080938
:08247C0000000000010203044E
:04248400310100081A
:042488000D0100083A
:10248C0010000000010000003600002001010000D7
:04249C000024F40024
:04000005080023A12B
:00000001FF
